{"contracts/GameLogic.sol":{"GameLogic":{"abi":[{"inputs":[{"internalType":"bytes[]","name":"actions","type":"bytes[]"}],"name":"processBatchActions","outputs":[],"stateMutability":"nonpayable","type":"function"}],"evm":{"bytecode":{"linkReferences":{},"object":"608060405234801561001057600080fd5b5061048a806100206000396000f3fe608060405234801561001057600080fd5b506004361061002b5760003560e01c80633cf6e5c314610030575b600080fd5b61004a6004803603810190610045919061022d565b61004c565b005b60005b828290508110156101aa57600083838381811061006f5761006e61027a565b5b905060200281019061008191906102b8565b8080601f016020809104026020016040519081016040528093929190818152602001838380828437600081840152601f19601f8201169050808301925050505050505090506000816000815181106100dc576100db61027a565b5b602001015160f81c60f81b60f81c905060008160ff1603610125576000808380602001905181019061010e919061038a565b925092505061011e3383836101af565b5050610195565b60018160ff160361015e5760008083806020019051810190610147919061038a565b92509250506101573383836101b4565b5050610194565b60028160ff16036101935760008083806020019051810190610180919061038a565b92509250506101903383836101b9565b50505b5b5b505080806101a29061040c565b91505061004f565b505050565b505050565b505050565b505050565b600080fd5b600080fd5b600080fd5b600080fd5b600080fd5b60008083601f8401126101ed576101ec6101c8565b5b8235905067ffffffffffffffff81111561020a576102096101cd565b5b602083019150836020820283011115610226576102256101d2565b5b9250929050565b60008060208385031215610244576102436101be565b5b600083013567ffffffffffffffff811115610262576102616101c3565b5b61026e858286016101d7565b92509250509250929050565b7f4e487b7100000000000000000000000000000000000000000000000000000000600052603260045260246000fd5b600080fd5b600080fd5b600080fd5b600080833560016020038436030381126102d5576102d46102a9565b5b80840192508235915067ffffffffffffffff8211156102f7576102f66102ae565b5b602083019250600182023603831315610313576103126102b3565b5b509250929050565b600060ff82169050919050565b6103318161031b565b811461033c57600080fd5b50565b60008151905061034e81610328565b92915050565b6000819050919050565b61036781610354565b811461037257600080fd5b50565b6000815190506103848161035e565b92915050565b6000806000606084860312156103a3576103a26101be565b5b60006103b18682870161033f565b93505060206103c286828701610375565b92505060406103d386828701610375565b9150509250925092565b7f4e487b7100000000000000000000000000000000000000000000000000000000600052601160045260246000fd5b600061041782610354565b91507fffffffffffffffffffffffffffffffffffffffffffffffffffffffffffffffff8203610449576104486103dd565b5b60018201905091905056fea2646970667358221220c3ab218fa143f6f130de2d9955eb48cae658c880cadc56753d0da9ce62ecebf264736f6c63430008140033","opcodes":"PUSH1 0x80 PUSH1 0x40 MSTORE CALLVALUE DUP1 ISZERO PUSH2 0x10 JUMPI PUSH1 0x0 DUP1 REVERT JUMPDEST POP PUSH2 0x48A DUP1 PUSH2 0x20 PUSH1 0x0 CODECOPY PUSH1 0x0 RETURN INVALID PUSH1 0x80 PUSH1 0x40 MSTORE CALLVALUE DUP1 ISZERO PUSH2 0x10 JUMPI PUSH1 0x0 DUP1 REVERT JUMPDEST POP PUSH1 0x4 CALLDATASIZE LT PUSH2 0x2B JUMPI PUSH1 0x0 CALLDATALOAD PUSH1 0xE0 SHR DUP1 PUSH4 0x3CF6E5C3 EQ PUSH2 0x30 JUMPI JUMPDEST PUSH1 0x0 DUP1 REVERT JUMPDEST PUSH2 0x4A PUSH1 0x4 DUP1 CALLDATASIZE SUB DUP2 ADD SWAP1 PUSH2 0x45 SWAP2 SWAP1 PUSH2 0x22D JUMP JUMPDEST PUSH2 0x4C JUMP JUMPDEST STOP JUMPDEST PUSH1 0x0 JUMPDEST DUP3 DUP3 SWAP1 POP DUP2 LT ISZERO PUSH2 0x1AA JUMPI PUSH1 0x0 DUP4 DUP4 DUP4 DUP2 DUP2 LT PUSH2 0x6F JUMPI PUSH2 0x6E PUSH2 0x27A JUMP JUMPDEST JUMPDEST SWAP1 POP PUSH1 0x20 MUL DUP2 ADD SWAP1 PUSH2 0x81 SWAP2 SWAP1 PUSH2 0x2B8 JUMP JUMPDEST DUP1 DUP1 PUSH1 0x1F ADD PUSH1 0x20 DUP1 SWAP2 DIV MUL PUSH1 0x20 ADD PUSH1 0x40 MLOAD SWAP1 DUP2 ADD PUSH1 0x40 MSTORE DUP1 SWAP4 SWAP3 SWAP2 SWAP1 DUP2 DUP2 MSTORE PUSH1 0x20 ADD DUP4 DUP4 DUP1 DUP3 DUP5 CALLDATACOPY PUSH1 0x0 DUP2 DUP5 ADD MSTORE PUSH1 0x1F NOT PUSH1 0x1F DUP3 ADD AND SWAP1 POP DUP1 DUP4 ADD SWAP3 POP POP POP POP POP POP POP SWAP1 POP PUSH1 0x0 DUP2 PUSH1 0x0 DUP2 MLOAD DUP2 LT PUSH2 0xDC JUMPI PUSH2 0xDB PUSH2 0x27A JUMP JUMPDEST JUMPDEST PUSH1 0x20 ADD ADD MLOAD PUSH1 0xF8 SHR PUSH1 0xF8 SHL PUSH1 0xF8 SHR SWAP1 POP PUSH1 0x0 DUP2 PUSH1 0xFF AND SUB PUSH2 0x125 JUMPI PUSH1 0x0 DUP1 DUP4 DUP1 PUSH1 0x20 ADD SWAP1 MLOAD DUP2 ADD SWAP1 PUSH2 0x10E SWAP2 SWAP1 PUSH2 0x38A JUMP JUMPDEST SWAP3 POP SWAP3 POP POP PUSH2 0x11E CALLER DUP4 DUP4 PUSH2 0x1AF JUMP JUMPDEST POP POP PUSH2 0x195 JUMP JUMPDEST PUSH1 0x1 DUP2 PUSH1 0xFF AND SUB PUSH2 0x15E JUMPI PUSH1 0x0 DUP1 DUP4 DUP1 PUSH1 0x20 ADD SWAP1 MLOAD DUP2 ADD SWAP1 PUSH2 0x147 SWAP2 SWAP1 PUSH2 0x38A JUMP JUMPDEST SWAP3 POP SWAP3 POP POP PUSH2 0x157 CALLER DUP4 DUP4 PUSH2 0x1B4 JUMP JUMPDEST POP POP PUSH2 0x194 JUMP JUMPDEST PUSH1 0x2 DUP2 PUSH1 0xFF AND SUB PUSH2 0x193 JUMPI PUSH1 0x0 DUP1 DUP4 DUP1 PUSH1 0x20 ADD SWAP1 MLOAD DUP2 ADD SWAP1 PUSH2 0x180 SWAP2 SWAP1 PUSH2 0x38A JUMP JUMPDEST SWAP3 POP SWAP3 POP POP PUSH2 0x190 CALLER DUP4 DUP4 PUSH2 0x1B9 JUMP JUMPDEST POP POP JUMPDEST JUMPDEST JUMPDEST POP POP DUP1 DUP1 PUSH2 0x1A2 SWAP1 PUSH2 0x40C JUMP JUMPDEST SWAP2 POP POP PUSH2 0x4F JUMP JUMPDEST POP POP POP JUMP JUMPDEST POP POP POP JUMP JUMPDEST POP POP POP JUMP JUMPDEST POP POP POP JUMP JUMPDEST PUSH1 0x0 DUP1 REVERT JUMPDEST PUSH1 0x0 DUP1 REVERT JUMPDEST PUSH1 0x0 DUP1 REVERT JUMPDEST PUSH1 0x0 DUP1 REVERT JUMPDEST PUSH1 0x0 DUP1 REVERT JUMPDEST PUSH1 0x0 DUP1 DUP4 PUSH1 0x1F DUP5 ADD SLT PUSH2 0x1ED JUMPI PUSH2 0x1EC PUSH2 0x1C8 JUMP JUMPDEST JUMPDEST DUP3 CALLDATALOAD SWAP1 POP PUSH8 0xFFFFFFFFFFFFFFFF DUP2 GT ISZERO PUSH2 0x20A JUMPI PUSH2 0x209 PUSH2 0x1CD JUMP JUMPDEST JUMPDEST PUSH1 0x20 DUP4 ADD SWAP2 POP DUP4 PUSH1 0x20 DUP3 MUL DUP4 ADD GT ISZERO PUSH2 0x226 JUMPI PUSH2 0x225 PUSH2 0x1D2 JUMP JUMPDEST JUMPDEST SWAP3 POP SWAP3 SWAP1 POP JUMP JUMPDEST PUSH1 0x0 DUP1 PUSH1 0x20 DUP4 DUP6 SUB SLT ISZERO PUSH2 0x244 JUMPI PUSH2 0x243 PUSH2 0x1BE JUMP JUMPDEST JUMPDEST PUSH1 0x0 DUP4 ADD CALLDATALOAD PUSH8 0xFFFFFFFFFFFFFFFF DUP2 GT ISZERO PUSH2 0x262 JUMPI PUSH2 0x261 PUSH2 0x1C3 JUMP JUMPDEST JUMPDEST PUSH2 0x26E DUP6 DUP3 DUP7 ADD PUSH2 0x1D7 JUMP JUMPDEST SWAP3 POP SWAP3 POP POP SWAP3 POP SWAP3 SWAP1 POP JUMP JUMPDEST PUSH32 0x4E487B7100000000000000000000000000000000000000000000000000000000 PUSH1 0x0 MSTORE PUSH1 0x32 PUSH1 0x4 MSTORE PUSH1 0x24 PUSH1 0x0 REVERT JUMPDEST PUSH1 0x0 DUP1 REVERT JUMPDEST PUSH1 0x0 DUP1 REVERT JUMPDEST PUSH1 0x0 DUP1 REVERT JUMPDEST PUSH1 0x0 DUP1 DUP4 CALLDATALOAD PUSH1 0x1 PUSH1 0x20 SUB DUP5 CALLDATASIZE SUB SUB DUP2 SLT PUSH2 0x2D5 JUMPI PUSH2 0x2D4 PUSH2 0x2A9 JUMP JUMPDEST JUMPDEST DUP1 DUP5 ADD SWAP3 POP DUP3 CALLDATALOAD SWAP2 POP PUSH8 0xFFFFFFFFFFFFFFFF DUP3 GT ISZERO PUSH2 0x2F7 JUMPI PUSH2 0x2F6 PUSH2 0x2AE JUMP JUMPDEST JUMPDEST PUSH1 0x20 DUP4 ADD SWAP3 POP PUSH1 0x1 DUP3 MUL CALLDATASIZE SUB DUP4 SGT ISZERO PUSH2 0x313 JUMPI PUSH2 0x312 PUSH2 0x2B3 JUMP JUMPDEST JUMPDEST POP SWAP3 POP SWAP3 SWAP1 POP JUMP JUMPDEST PUSH1 0x0 PUSH1 0xFF DUP3 AND SWAP1 POP SWAP2 SWAP1 POP JUMP JUMPDEST PUSH2 0x331 DUP2 PUSH2 0x31B JUMP JUMPDEST DUP2 EQ PUSH2 0x33C JUMPI PUSH1 0x0 DUP1 REVERT JUMPDEST POP JUMP JUMPDEST PUSH1 0x0 DUP2 MLOAD SWAP1 POP PUSH2 0x34E DUP2 PUSH2 0x328 JUMP JUMPDEST SWAP3 SWAP2 POP POP JUMP JUMPDEST PUSH1 0x0 DUP2 SWAP1 POP SWAP2 SWAP1 POP JUMP JUMPDEST PUSH2 0x367 DUP2 PUSH2 0x354 JUMP JUMPDEST DUP2 EQ PUSH2 0x372 JUMPI PUSH1 0x0 DUP1 REVERT JUMPDEST POP JUMP JUMPDEST PUSH1 0x0 DUP2 MLOAD SWAP1 POP PUSH2 0x384 DUP2 PUSH2 0x35E JUMP JUMPDEST SWAP3 SWAP2 POP POP JUMP JUMPDEST PUSH1 0x0 DUP1 PUSH1 0x0 PUSH1 0x60 DUP5 DUP7 SUB SLT ISZERO PUSH2 0x3A3 JUMPI PUSH2 0x3A2 PUSH2 0x1BE JUMP JUMPDEST JUMPDEST PUSH1 0x0 PUSH2 0x3B1 DUP7 DUP3 DUP8 ADD PUSH2 0x33F JUMP JUMPDEST SWAP4 POP POP PUSH1 0x20 PUSH2 0x3C2 DUP7 DUP3 DUP8 ADD PUSH2 0x375 JUMP JUMPDEST SWAP3 POP POP PUSH1 0x40 PUSH2 0x3D3 DUP7 DUP3 DUP8 ADD PUSH2 0x375 JUMP JUMPDEST SWAP2 POP POP SWAP3 POP SWAP3 POP SWAP3 JUMP JUMPDEST PUSH32 0x4E487B7100000000000000000000000000000000000000000000000000000000 PUSH1 0x0 MSTORE PUSH1 0x11 PUSH1 0x4 MSTORE PUSH1 0x24 PUSH1 0x0 REVERT JUMPDEST PUSH1 0x0 PUSH2 0x417 DUP3 PUSH2 0x354 JUMP JUMPDEST SWAP2 POP PUSH32 0xFFFFFFFFFFFFFFFFFFFFFFFFFFFFFFFFFFFFFFFFFFFFFFFFFFFFFFFFFFFFFFFF DUP3 SUB PUSH2 0x449 JUMPI PUSH2 0x448 PUSH2 0x3DD JUMP JUMPDEST JUMPDEST PUSH1 0x1 DUP3 ADD SWAP1 POP SWAP2 SWAP1 POP JUMP INVALID LOG2 PUSH5 0x6970667358 0x22 SLT KECCAK256 0xC3 0xAB 0x21 DUP16 LOG1 NUMBER 0xF6 CALL ADDRESS 0xDE 0x2D SWAP10 SSTORE 0xEB BASEFEE 0xCA 0xE6 PC 0xC8 DUP1 0xCA 0xDC JUMP PUSH22 0x3D0DA9CE62ECEBF264736F6C63430008140033000000 "},"methodIdentifiers":{"processBatchActions(bytes[])":"3cf6e5c3"}}}}}