{
  "_format": "hh-sol-artifact-1",
  "contractName": "GameItems",
  "sourceName": "contracts/GameItems.sol",
  "abi": [
    {
      "inputs": [
        {
          "internalType": "address",
          "name": "initialOwner",
          "type": "address"
        }
      ],
      "stateMutability": "nonpayable",
      "type": "constructor"
    },
    {
      "inputs": [],
      "name": "ERC721EnumerableForbiddenBatchMint",
      "type": "error"
    },
    {
      "inputs": [
        {
          "internalType": "address",
          "name": "sender",
          "type": "address"
        },
        {
          "internalType": "uint256",
          "name": "tokenId",
          "type": "uint256"
        },
        {
          "internalType": "address",
          "name": "owner",
          "type": "address"
        }
      ],
      "name": "ERC721IncorrectOwner",
      "type": "error"
    },
    {
      "inputs": [
        {
          "internalType": "address",
          "name": "operator",
          "type": "address"
        },
        {
          "internalType": "uint256",
          "name": "tokenId",
          "type": "uint256"
        }
      ],
      "name": "ERC721InsufficientApproval",
      "type": "error"
    },
    {
      "inputs": [
        {
          "internalType": "address",
          "name": "approver",
          "type": "address"
        }
      ],
      "name": "ERC721InvalidApprover",
      "type": "error"
    },
    {
      "inputs": [
        {
          "internalType": "address",
          "name": "operator",
          "type": "address"
        }
      ],
      "name": "ERC721InvalidOperator",
      "type": "error"
    },
    {
      "inputs": [
        {
          "internalType": "address",
          "name": "owner",
          "type": "address"
        }
      ],
      "name": "ERC721InvalidOwner",
      "type": "error"
    },
    {
      "inputs": [
        {
          "internalType": "address",
          "name": "receiver",
          "type": "address"
        }
      ],
      "name": "ERC721InvalidReceiver",
      "type": "error"
    },
    {
      "inputs": [
        {
          "internalType": "address",
          "name": "sender",
          "type": "address"
        }
      ],
      "name": "ERC721InvalidSender",
      "type": "error"
    },
    {
      "inputs": [
        {
          "internalType": "uint256",
          "name": "tokenId",
          "type": "uint256"
        }
      ],
      "name": "ERC721NonexistentToken",
      "type": "error"
    },
    {
      "inputs": [
        {
          "internalType": "address",
          "name": "owner",
          "type": "address"
        },
        {
          "internalType": "uint256",
          "name": "index",
          "type": "uint256"
        }
      ],
      "name": "ERC721OutOfBoundsIndex",
      "type": "error"
    },
    {
      "inputs": [
        {
          "internalType": "address",
          "name": "owner",
          "type": "address"
        }
      ],
      "name": "OwnableInvalidOwner",
      "type": "error"
    },
    {
      "inputs": [
        {
          "internalType": "address",
          "name": "account",
          "type": "address"
        }
      ],
      "name": "OwnableUnauthorizedAccount",
      "type": "error"
    },
    {
      "anonymous": false,
      "inputs": [
        {
          "indexed": true,
          "internalType": "address",
          "name": "owner",
          "type": "address"
        },
        {
          "indexed": true,
          "internalType": "address",
          "name": "approved",
          "type": "address"
        },
        {
          "indexed": true,
          "internalType": "uint256",
          "name": "tokenId",
          "type": "uint256"
        }
      ],
      "name": "Approval",
      "type": "event"
    },
    {
      "anonymous": false,
      "inputs": [
        {
          "indexed": true,
          "internalType": "address",
          "name": "owner",
          "type": "address"
        },
        {
          "indexed": true,
          "internalType": "address",
          "name": "operator",
          "type": "address"
        },
        {
          "indexed": false,
          "internalType": "bool",
          "name": "approved",
          "type": "bool"
        }
      ],
      "name": "ApprovalForAll",
      "type": "event"
    },
    {
      "anonymous": false,
      "inputs": [
        {
          "indexed": true,
          "internalType": "uint256",
          "name": "tokenId",
          "type": "uint256"
        },
        {
          "indexed": true,
          "internalType": "address",
          "name": "owner",
          "type": "address"
        },
        {
          "components": [
            {
              "internalType": "uint8",
              "name": "itemType",
              "type": "uint8"
            },
            {
              "internalType": "uint8",
              "name": "rarity",
              "type": "uint8"
            },
            {
              "internalType": "uint16",
              "name": "power",
              "type": "uint16"
            },
            {
              "internalType": "uint32",
              "name": "created",
              "type": "uint32"
            }
          ],
          "indexed": false,
          "internalType": "struct GameItems.ItemAttributes",
          "name": "attributes",
          "type": "tuple"
        }
      ],
      "name": "ItemCreated",
      "type": "event"
    },
    {
      "anonymous": false,
      "inputs": [
        {
          "indexed": true,
          "internalType": "address",
          "name": "previousOwner",
          "type": "address"
        },
        {
          "indexed": true,
          "internalType": "address",
          "name": "newOwner",
          "type": "address"
        }
      ],
      "name": "OwnershipTransferred",
      "type": "event"
    },
    {
      "anonymous": false,
      "inputs": [
        {
          "indexed": true,
          "internalType": "address",
          "name": "from",
          "type": "address"
        },
        {
          "indexed": true,
          "internalType": "address",
          "name": "to",
          "type": "address"
        },
        {
          "indexed": true,
          "internalType": "uint256",
          "name": "tokenId",
          "type": "uint256"
        }
      ],
      "name": "Transfer",
      "type": "event"
    },
    {
      "inputs": [
        {
          "internalType": "address",
          "name": "to",
          "type": "address"
        },
        {
          "internalType": "uint256",
          "name": "tokenId",
          "type": "uint256"
        }
      ],
      "name": "approve",
      "outputs": [],
      "stateMutability": "nonpayable",
      "type": "function"
    },
    {
      "inputs": [
        {
          "internalType": "address",
          "name": "owner",
          "type": "address"
        }
      ],
      "name": "balanceOf",
      "outputs": [
        {
          "internalType": "uint256",
          "name": "",
          "type": "uint256"
        }
      ],
      "stateMutability": "view",
      "type": "function"
    },
    {
      "inputs": [
        {
          "internalType": "uint256",
          "name": "tokenId",
          "type": "uint256"
        }
      ],
      "name": "getApproved",
      "outputs": [
        {
          "internalType": "address",
          "name": "",
          "type": "address"
        }
      ],
      "stateMutability": "view",
      "type": "function"
    },
    {
      "inputs": [
        {
          "internalType": "address",
          "name": "owner",
          "type": "address"
        },
        {
          "internalType": "address",
          "name": "operator",
          "type": "address"
        }
      ],
      "name": "isApprovedForAll",
      "outputs": [
        {
          "internalType": "bool",
          "name": "",
          "type": "bool"
        }
      ],
      "stateMutability": "view",
      "type": "function"
    },
    {
      "inputs": [
        {
          "internalType": "uint256",
          "name": "",
          "type": "uint256"
        }
      ],
      "name": "itemAttributes",
      "outputs": [
        {
          "internalType": "uint8",
          "name": "itemType",
          "type": "uint8"
        },
        {
          "internalType": "uint8",
          "name": "rarity",
          "type": "uint8"
        },
        {
          "internalType": "uint16",
          "name": "power",
          "type": "uint16"
        },
        {
          "internalType": "uint32",
          "name": "created",
          "type": "uint32"
        }
      ],
      "stateMutability": "view",
      "type": "function"
    },
    {
      "inputs": [
        {
          "internalType": "address",
          "name": "player",
          "type": "address"
        },
        {
          "internalType": "uint8",
          "name": "itemType",
          "type": "uint8"
        },
        {
          "internalType": "uint8",
          "name": "rarity",
          "type": "uint8"
        },
        {
          "internalType": "uint16",
          "name": "power",
          "type": "uint16"
        }
      ],
      "name": "mintItem",
      "outputs": [
        {
          "internalType": "uint256",
          "name": "",
          "type": "uint256"
        }
      ],
      "stateMutability": "nonpayable",
      "type": "function"
    },
    {
      "inputs": [],
      "name": "name",
      "outputs": [
        {
          "internalType": "string",
          "name": "",
          "type": "string"
        }
      ],
      "stateMutability": "view",
      "type": "function"
    },
    {
      "inputs": [],
      "name": "owner",
      "outputs": [
        {
          "internalType": "address",
          "name": "",
          "type": "address"
        }
      ],
      "stateMutability": "view",
      "type": "function"
    },
    {
      "inputs": [
        {
          "internalType": "uint256",
          "name": "tokenId",
          "type": "uint256"
        }
      ],
      "name": "ownerOf",
      "outputs": [
        {
          "internalType": "address",
          "name": "",
          "type": "address"
        }
      ],
      "stateMutability": "view",
      "type": "function"
    },
    {
      "inputs": [],
      "name": "renounceOwnership",
      "outputs": [],
      "stateMutability": "nonpayable",
      "type": "function"
    },
    {
      "inputs": [
        {
          "internalType": "address",
          "name": "from",
          "type": "address"
        },
        {
          "internalType": "address",
          "name": "to",
          "type": "address"
        },
        {
          "internalType": "uint256",
          "name": "tokenId",
          "type": "uint256"
        }
      ],
      "name": "safeTransferFrom",
      "outputs": [],
      "stateMutability": "nonpayable",
      "type": "function"
    },
    {
      "inputs": [
        {
          "internalType": "address",
          "name": "from",
          "type": "address"
        },
        {
          "internalType": "address",
          "name": "to",
          "type": "address"
        },
        {
          "internalType": "uint256",
          "name": "tokenId",
          "type": "uint256"
        },
        {
          "internalType": "bytes",
          "name": "data",
          "type": "bytes"
        }
      ],
      "name": "safeTransferFrom",
      "outputs": [],
      "stateMutability": "nonpayable",
      "type": "function"
    },
    {
      "inputs": [
        {
          "internalType": "address",
          "name": "operator",
          "type": "address"
        },
        {
          "internalType": "bool",
          "name": "approved",
          "type": "bool"
        }
      ],
      "name": "setApprovalForAll",
      "outputs": [],
      "stateMutability": "nonpayable",
      "type": "function"
    },
    {
      "inputs": [
        {
          "internalType": "string",
          "name": "baseURI",
          "type": "string"
        }
      ],
      "name": "setBaseURI",
      "outputs": [],
      "stateMutability": "nonpayable",
      "type": "function"
    },
    {
      "inputs": [
        {
          "internalType": "bytes4",
          "name": "interfaceId",
          "type": "bytes4"
        }
      ],
      "name": "supportsInterface",
      "outputs": [
        {
          "internalType": "bool",
          "name": "",
          "type": "bool"
        }
      ],
      "stateMutability": "view",
      "type": "function"
    },
    {
      "inputs": [],
      "name": "symbol",
      "outputs": [
        {
          "internalType": "string",
          "name": "",
          "type": "string"
        }
      ],
      "stateMutability": "view",
      "type": "function"
    },
    {
      "inputs": [
        {
          "internalType": "uint256",
          "name": "index",
          "type": "uint256"
        }
      ],
      "name": "tokenByIndex",
      "outputs": [
        {
          "internalType": "uint256",
          "name": "",
          "type": "uint256"
        }
      ],
      "stateMutability": "view",
      "type": "function"
    },
    {
      "inputs": [
        {
          "internalType": "address",
          "name": "owner",
          "type": "address"
        },
        {
          "internalType": "uint256",
          "name": "index",
          "type": "uint256"
        }
      ],
      "name": "tokenOfOwnerByIndex",
      "outputs": [
        {
          "internalType": "uint256",
          "name": "",
          "type": "uint256"
        }
      ],
      "stateMutability": "view",
      "type": "function"
    },
    {
      "inputs": [
        {
          "internalType": "uint256",
          "name": "tokenId",
          "type": "uint256"
        }
      ],
      "name": "tokenURI",
      "outputs": [
        {
          "internalType": "string",
          "name": "",
          "type": "string"
        }
      ],
      "stateMutability": "view",
      "type": "function"
    },
    {
      "inputs": [],
      "name": "totalSupply",
      "outputs": [
        {
          "internalType": "uint256",
          "name": "",
          "type": "uint256"
        }
      ],
      "stateMutability": "view",
      "type": "function"
    },
    {
      "inputs": [
        {
          "internalType": "address",
          "name": "from",
          "type": "address"
        },
        {
          "internalType": "address",
          "name": "to",
          "type": "address"
        },
        {
          "internalType": "uint256",
          "name": "tokenId",
          "type": "uint256"
        }
      ],
      "name": "transferFrom",
      "outputs": [],
      "stateMutability": "nonpayable",
      "type": "function"
    },
    {
      "inputs": [
        {
          "internalType": "address",
          "name": "newOwner",
          "type": "address"
        }
      ],
      "name": "transferOwnership",
      "outputs": [],
      "stateMutability": "nonpayable",
      "type": "function"
    }
  ],
  "bytecode": "0x60806040526001600b553480156200001657600080fd5b50604051620035b8380380620035b883398181016040528101906200003c91906200028d565b806040518060400160405280601181526020017f43727970746f5175657374204974656d730000000000000000000000000000008152506040518060400160405280600681526020017f43514954454d00000000000000000000000000000000000000000000000000008152508160009081620000ba919062000539565b508060019081620000cc919062000539565b505050600073ffffffffffffffffffffffffffffffffffffffff168173ffffffffffffffffffffffffffffffffffffffff1603620001445760006040517f1e4fbdf70000000000000000000000000000000000000000000000000000000081526004016200013b919062000631565b60405180910390fd5b62000155816200015d60201b60201c565b50506200064e565b6000600a60009054906101000a900473ffffffffffffffffffffffffffffffffffffffff16905081600a60006101000a81548173ffffffffffffffffffffffffffffffffffffffff021916908373ffffffffffffffffffffffffffffffffffffffff1602179055508173ffffffffffffffffffffffffffffffffffffffff168173ffffffffffffffffffffffffffffffffffffffff167f8be0079c531659141344cd1fd0a4f28419497f9722a3daafe3b4186f6b6457e060405160405180910390a35050565b600080fd5b600073ffffffffffffffffffffffffffffffffffffffff82169050919050565b6000620002558262000228565b9050919050565b620002678162000248565b81146200027357600080fd5b50565b60008151905062000287816200025c565b92915050565b600060208284031215620002a657620002a562000223565b5b6000620002b68482850162000276565b91505092915050565b600081519050919050565b7f4e487b7100000000000000000000000000000000000000000000000000000000600052604160045260246000fd5b7f4e487b7100000000000000000000000000000000000000000000000000000000600052602260045260246000fd5b600060028204905060018216806200034157607f821691505b602082108103620003575762000356620002f9565b5b50919050565b60008190508160005260206000209050919050565b60006020601f8301049050919050565b600082821b905092915050565b600060088302620003c17fffffffffffffffffffffffffffffffffffffffffffffffffffffffffffffffff8262000382565b620003cd868362000382565b95508019841693508086168417925050509392505050565b6000819050919050565b6000819050919050565b60006200041a620004146200040e84620003e5565b620003ef565b620003e5565b9050919050565b6000819050919050565b6200043683620003f9565b6200044e620004458262000421565b8484546200038f565b825550505050565b600090565b6200046562000456565b620004728184846200042b565b505050565b5b818110156200049a576200048e6000826200045b565b60018101905062000478565b5050565b601f821115620004e957620004b3816200035d565b620004be8462000372565b81016020851015620004ce578190505b620004e6620004dd8562000372565b83018262000477565b50505b505050565b600082821c905092915050565b60006200050e60001984600802620004ee565b1980831691505092915050565b6000620005298383620004fb565b9150826002028217905092915050565b6200054482620002bf565b67ffffffffffffffff81111562000560576200055f620002ca565b5b6200056c825462000328565b620005798282856200049e565b600060209050601f831160018114620005b157600084156200059c578287015190505b620005a885826200051b565b86555062000618565b601f198416620005c1866200035d565b60005b82811015620005eb57848901518255600182019150602085019450602081019050620005c4565b868310156200060b578489015162000607601f891682620004fb565b8355505b6001600288020188555050505b505050505050565b6200062b8162000248565b82525050565b600060208201905062000648600083018462000620565b92915050565b612f5a806200065e6000396000f3fe608060405234801561001057600080fd5b50600436106101425760003560e01c806355f804b3116100b857806395d89b411161007c57806395d89b411461039e578063a22cb465146103bc578063b88d4fde146103d8578063c87b56dd146103f4578063e985e9c514610424578063f2fde38b1461045457610142565b806355f804b3146102fa5780636352211e1461031657806370a0823114610346578063715018a6146103765780638da5cb5b1461038057610142565b806318160ddd1161010a57806318160ddd146102115780631c001d771461022f57806323b872dd146102625780632f745c591461027e57806342842e0e146102ae5780634f6ccce7146102ca57610142565b806301ffc9a71461014757806306fdde0314610177578063081812fc14610195578063095ea7b3146101c557806312d3716b146101e1575b600080fd5b610161600480360381019061015c919061213a565b610470565b60405161016e9190612182565b60405180910390f35b61017f6104ea565b60405161018c919061222d565b60405180910390f35b6101af60048036038101906101aa9190612285565b61057c565b6040516101bc91906122f3565b60405180910390f35b6101df60048036038101906101da919061233a565b610598565b005b6101fb60048036038101906101f691906123ed565b6105ae565b6040516102089190612463565b60405180910390f35b610219610711565b6040516102269190612463565b60405180910390f35b61024960048036038101906102449190612285565b61071e565b60405161025994939291906124bb565b60405180910390f35b61027c60048036038101906102779190612500565b610786565b005b6102986004803603810190610293919061233a565b610888565b6040516102a59190612463565b60405180910390f35b6102c860048036038101906102c39190612500565b610931565b005b6102e460048036038101906102df9190612285565b610951565b6040516102f19190612463565b60405180910390f35b610314600480360381019061030f9190612688565b6109c7565b005b610330600480360381019061032b9190612285565b6109e2565b60405161033d91906122f3565b60405180910390f35b610360600480360381019061035b91906126d1565b6109f4565b60405161036d9190612463565b60405180910390f35b61037e610aae565b005b610388610ac2565b60405161039591906122f3565b60405180910390f35b6103a6610aec565b6040516103b3919061222d565b60405180910390f35b6103d660048036038101906103d1919061272a565b610b7e565b005b6103f260048036038101906103ed919061280b565b610b94565b005b61040e60048036038101906104099190612285565b610bb9565b60405161041b919061222d565b60405180910390f35b61043e6004803603810190610439919061288e565b610c22565b60405161044b9190612182565b60405180910390f35b61046e600480360381019061046991906126d1565b610cb6565b005b60007f780e9d63000000000000000000000000000000000000000000000000000000007bffffffffffffffffffffffffffffffffffffffffffffffffffffffff1916827bffffffffffffffffffffffffffffffffffffffffffffffffffffffff191614806104e357506104e282610d3c565b5b9050919050565b6060600080546104f9906128fd565b80601f0160208091040260200160405190810160405280929190818152602001828054610525906128fd565b80156105725780601f1061054757610100808354040283529160200191610572565b820191906000526020600020905b81548152906001019060200180831161055557829003601f168201915b5050505050905090565b600061058782610e1e565b5061059182610ea6565b9050919050565b6105aa82826105a5610ee3565b610eeb565b5050565b60006105b8610efd565b6000600b60008154809291906105cd9061295d565b9190505590506105dd8682610f84565b600060405180608001604052808760ff1681526020018660ff1681526020018561ffff1681526020014263ffffffff16815250905080600d600084815260200190815260200160002060008201518160000160006101000a81548160ff021916908360ff16021790555060208201518160000160016101000a81548160ff021916908360ff16021790555060408201518160000160026101000a81548161ffff021916908361ffff16021790555060608201518160000160046101000a81548163ffffffff021916908363ffffffff1602179055509050508673ffffffffffffffffffffffffffffffffffffffff16827fdd8d3f95f58ce062511dd93088feaa3108acc91140ff27038df115a52b07e799836040516106fc9190612a27565b60405180910390a38192505050949350505050565b6000600880549050905090565b600d6020528060005260406000206000915090508060000160009054906101000a900460ff16908060000160019054906101000a900460ff16908060000160029054906101000a900461ffff16908060000160049054906101000a900463ffffffff16905084565b600073ffffffffffffffffffffffffffffffffffffffff168273ffffffffffffffffffffffffffffffffffffffff16036107f85760006040517f64a0ae920000000000000000000000000000000000000000000000000000000081526004016107ef91906122f3565b60405180910390fd5b600061080c8383610807610ee3565b61107d565b90508373ffffffffffffffffffffffffffffffffffffffff168173ffffffffffffffffffffffffffffffffffffffff1614610882578382826040517f64283d7b00000000000000000000000000000000000000000000000000000000815260040161087993929190612a42565b60405180910390fd5b50505050565b6000610893836109f4565b82106108d85782826040517fa57d13dc0000000000000000000000000000000000000000000000000000000081526004016108cf929190612a79565b60405180910390fd5b600660008473ffffffffffffffffffffffffffffffffffffffff1673ffffffffffffffffffffffffffffffffffffffff168152602001908152602001600020600083815260200190815260200160002054905092915050565b61094c83838360405180602001604052806000815250610b94565b505050565b600061095b610711565b82106109a1576000826040517fa57d13dc000000000000000000000000000000000000000000000000000000008152600401610998929190612a79565b60405180910390fd5b600882815481106109b5576109b4612aa2565b5b90600052602060002001549050919050565b6109cf610efd565b80600c90816109de9190612c7d565b5050565b60006109ed82610e1e565b9050919050565b60008073ffffffffffffffffffffffffffffffffffffffff168273ffffffffffffffffffffffffffffffffffffffff1603610a675760006040517f89c62b64000000000000000000000000000000000000000000000000000000008152600401610a5e91906122f3565b60405180910390fd5b600360008373ffffffffffffffffffffffffffffffffffffffff1673ffffffffffffffffffffffffffffffffffffffff168152602001908152602001600020549050919050565b610ab6610efd565b610ac0600061119a565b565b6000600a60009054906101000a900473ffffffffffffffffffffffffffffffffffffffff16905090565b606060018054610afb906128fd565b80601f0160208091040260200160405190810160405280929190818152602001828054610b27906128fd565b8015610b745780601f10610b4957610100808354040283529160200191610b74565b820191906000526020600020905b815481529060010190602001808311610b5757829003601f168201915b5050505050905090565b610b90610b89610ee3565b8383611260565b5050565b610b9f848484610786565b610bb3610baa610ee3565b858585856113cf565b50505050565b6060610bc482610e1e565b506000610bcf611580565b90506000815111610bef5760405180602001604052806000815250610c1a565b80610bf984611612565b604051602001610c0a929190612d8b565b6040516020818303038152906040525b915050919050565b6000600560008473ffffffffffffffffffffffffffffffffffffffff1673ffffffffffffffffffffffffffffffffffffffff16815260200190815260200160002060008373ffffffffffffffffffffffffffffffffffffffff1673ffffffffffffffffffffffffffffffffffffffff16815260200190815260200160002060009054906101000a900460ff16905092915050565b610cbe610efd565b600073ffffffffffffffffffffffffffffffffffffffff168173ffffffffffffffffffffffffffffffffffffffff1603610d305760006040517f1e4fbdf7000000000000000000000000000000000000000000000000000000008152600401610d2791906122f3565b60405180910390fd5b610d398161119a565b50565b60007f80ac58cd000000000000000000000000000000000000000000000000000000007bffffffffffffffffffffffffffffffffffffffffffffffffffffffff1916827bffffffffffffffffffffffffffffffffffffffffffffffffffffffff19161480610e0757507f5b5e139f000000000000000000000000000000000000000000000000000000007bffffffffffffffffffffffffffffffffffffffffffffffffffffffff1916827bffffffffffffffffffffffffffffffffffffffffffffffffffffffff1916145b80610e175750610e16826116e0565b5b9050919050565b600080610e2a8361174a565b9050600073ffffffffffffffffffffffffffffffffffffffff168173ffffffffffffffffffffffffffffffffffffffff1603610e9d57826040517f7e273289000000000000000000000000000000000000000000000000000000008152600401610e949190612463565b60405180910390fd5b80915050919050565b60006004600083815260200190815260200160002060009054906101000a900473ffffffffffffffffffffffffffffffffffffffff169050919050565b600033905090565b610ef88383836001611787565b505050565b610f05610ee3565b73ffffffffffffffffffffffffffffffffffffffff16610f23610ac2565b73ffffffffffffffffffffffffffffffffffffffff1614610f8257610f46610ee3565b6040517f118cdaa7000000000000000000000000000000000000000000000000000000008152600401610f7991906122f3565b60405180910390fd5b565b600073ffffffffffffffffffffffffffffffffffffffff168273ffffffffffffffffffffffffffffffffffffffff1603610ff65760006040517f64a0ae92000000000000000000000000000000000000000000000000000000008152600401610fed91906122f3565b60405180910390fd5b60006110048383600061107d565b9050600073ffffffffffffffffffffffffffffffffffffffff168173ffffffffffffffffffffffffffffffffffffffff16146110785760006040517f73c6ac6e00000000000000000000000000000000000000000000000000000000815260040161106f91906122f3565b60405180910390fd5b505050565b60008061108b85858561194c565b9050600073ffffffffffffffffffffffffffffffffffffffff168173ffffffffffffffffffffffffffffffffffffffff16036110cf576110ca84611b66565b61110e565b8473ffffffffffffffffffffffffffffffffffffffff168173ffffffffffffffffffffffffffffffffffffffff161461110d5761110c8185611baf565b5b5b600073ffffffffffffffffffffffffffffffffffffffff168573ffffffffffffffffffffffffffffffffffffffff16036111505761114b84611c9a565b61118f565b8473ffffffffffffffffffffffffffffffffffffffff168173ffffffffffffffffffffffffffffffffffffffff161461118e5761118d8585611d6b565b5b5b809150509392505050565b6000600a60009054906101000a900473ffffffffffffffffffffffffffffffffffffffff16905081600a60006101000a81548173ffffffffffffffffffffffffffffffffffffffff021916908373ffffffffffffffffffffffffffffffffffffffff1602179055508173ffffffffffffffffffffffffffffffffffffffff168173ffffffffffffffffffffffffffffffffffffffff167f8be0079c531659141344cd1fd0a4f28419497f9722a3daafe3b4186f6b6457e060405160405180910390a35050565b600073ffffffffffffffffffffffffffffffffffffffff168273ffffffffffffffffffffffffffffffffffffffff16036112d157816040517f5b08ba180000000000000000000000000000000000000000000000000000000081526004016112c891906122f3565b60405180910390fd5b80600560008573ffffffffffffffffffffffffffffffffffffffff1673ffffffffffffffffffffffffffffffffffffffff16815260200190815260200160002060008473ffffffffffffffffffffffffffffffffffffffff1673ffffffffffffffffffffffffffffffffffffffff16815260200190815260200160002060006101000a81548160ff0219169083151502179055508173ffffffffffffffffffffffffffffffffffffffff168373ffffffffffffffffffffffffffffffffffffffff167f17307eab39ab6107e8899845ad3d59bd9653f200f220920489ca2b5937696c31836040516113c29190612182565b60405180910390a3505050565b60008373ffffffffffffffffffffffffffffffffffffffff163b1115611579578273ffffffffffffffffffffffffffffffffffffffff1663150b7a02868685856040518563ffffffff1660e01b815260040161142e9493929190612e04565b6020604051808303816000875af192505050801561146a57506040513d601f19601f820116820180604052508101906114679190612e65565b60015b6114ee573d806000811461149a576040519150601f19603f3d011682016040523d82523d6000602084013e61149f565b606091505b5060008151036114e657836040517f64a0ae920000000000000000000000000000000000000000000000000000000081526004016114dd91906122f3565b60405180910390fd5b805181602001fd5b63150b7a0260e01b7bffffffffffffffffffffffffffffffffffffffffffffffffffffffff1916817bffffffffffffffffffffffffffffffffffffffffffffffffffffffff19161461157757836040517f64a0ae9200000000000000000000000000000000000000000000000000000000815260040161156e91906122f3565b60405180910390fd5b505b5050505050565b6060600c805461158f906128fd565b80601f01602080910402602001604051908101604052809291908181526020018280546115bb906128fd565b80156116085780601f106115dd57610100808354040283529160200191611608565b820191906000526020600020905b8154815290600101906020018083116115eb57829003601f168201915b5050505050905090565b60606000600161162184611df6565b01905060008167ffffffffffffffff8111156116405761163f61255d565b5b6040519080825280601f01601f1916602001820160405280156116725781602001600182028036833780820191505090505b509050600082602001820190505b6001156116d5578080600190039150507f3031323334353637383961626364656600000000000000000000000000000000600a86061a8153600a85816116c9576116c8612e92565b5b04945060008503611680575b819350505050919050565b60007f01ffc9a7000000000000000000000000000000000000000000000000000000007bffffffffffffffffffffffffffffffffffffffffffffffffffffffff1916827bffffffffffffffffffffffffffffffffffffffffffffffffffffffff1916149050919050565b60006002600083815260200190815260200160002060009054906101000a900473ffffffffffffffffffffffffffffffffffffffff169050919050565b80806117c05750600073ffffffffffffffffffffffffffffffffffffffff168273ffffffffffffffffffffffffffffffffffffffff1614155b156118f45760006117d084610e1e565b9050600073ffffffffffffffffffffffffffffffffffffffff168373ffffffffffffffffffffffffffffffffffffffff161415801561183b57508273ffffffffffffffffffffffffffffffffffffffff168173ffffffffffffffffffffffffffffffffffffffff1614155b801561184e575061184c8184610c22565b155b1561189057826040517fa9fbf51f00000000000000000000000000000000000000000000000000000000815260040161188791906122f3565b60405180910390fd5b81156118f257838573ffffffffffffffffffffffffffffffffffffffff168273ffffffffffffffffffffffffffffffffffffffff167f8c5be1e5ebec7d5bd14f71427d1e84f3dd0314c0f7b2291e5b200ac8c7c3b92560405160405180910390a45b505b836004600085815260200190815260200160002060006101000a81548173ffffffffffffffffffffffffffffffffffffffff021916908373ffffffffffffffffffffffffffffffffffffffff16021790555050505050565b6000806119588461174a565b9050600073ffffffffffffffffffffffffffffffffffffffff168373ffffffffffffffffffffffffffffffffffffffff161461199a57611999818486611f49565b5b600073ffffffffffffffffffffffffffffffffffffffff168173ffffffffffffffffffffffffffffffffffffffff1614611a2b576119dc600085600080611787565b6001600360008373ffffffffffffffffffffffffffffffffffffffff1673ffffffffffffffffffffffffffffffffffffffff168152602001908152602001600020600082825403925050819055505b600073ffffffffffffffffffffffffffffffffffffffff168573ffffffffffffffffffffffffffffffffffffffff1614611aae576001600360008773ffffffffffffffffffffffffffffffffffffffff1673ffffffffffffffffffffffffffffffffffffffff168152602001908152602001600020600082825401925050819055505b846002600086815260200190815260200160002060006101000a81548173ffffffffffffffffffffffffffffffffffffffff021916908373ffffffffffffffffffffffffffffffffffffffff160217905550838573ffffffffffffffffffffffffffffffffffffffff168273ffffffffffffffffffffffffffffffffffffffff167fddf252ad1be2c89b69c2b068fc378daa952ba7f163c4a11628f55a4df523b3ef60405160405180910390a4809150509392505050565b6008805490506009600083815260200190815260200160002081905550600881908060018154018082558091505060019003906000526020600020016000909190919091505550565b6000611bba836109f4565b90506000600760008481526020019081526020016000205490506000600660008673ffffffffffffffffffffffffffffffffffffffff1673ffffffffffffffffffffffffffffffffffffffff1681526020019081526020016000209050828214611c665760008160008581526020019081526020016000205490508082600085815260200190815260200160002081905550826007600083815260200190815260200160002081905550505b6007600085815260200190815260200160002060009055806000848152602001908152602001600020600090555050505050565b60006001600880549050611cae9190612ec1565b9050600060096000848152602001908152602001600020549050600060088381548110611cde57611cdd612aa2565b5b906000526020600020015490508060088381548110611d0057611cff612aa2565b5b906000526020600020018190555081600960008381526020019081526020016000208190555060096000858152602001908152602001600020600090556008805480611d4f57611d4e612ef5565b5b6001900381819060005260206000200160009055905550505050565b60006001611d78846109f4565b611d829190612ec1565b905081600660008573ffffffffffffffffffffffffffffffffffffffff1673ffffffffffffffffffffffffffffffffffffffff168152602001908152602001600020600083815260200190815260200160002081905550806007600084815260200190815260200160002081905550505050565b600080600090507a184f03e93ff9f4daa797ed6e38ed64bf6a1f0100000000000000008310611e54577a184f03e93ff9f4daa797ed6e38ed64bf6a1f0100000000000000008381611e4a57611e49612e92565b5b0492506040810190505b6d04ee2d6d415b85acef81000000008310611e91576d04ee2d6d415b85acef81000000008381611e8757611e86612e92565b5b0492506020810190505b662386f26fc100008310611ec057662386f26fc100008381611eb657611eb5612e92565b5b0492506010810190505b6305f5e1008310611ee9576305f5e1008381611edf57611ede612e92565b5b0492506008810190505b6127108310611f0e576127108381611f0457611f03612e92565b5b0492506004810190505b60648310611f315760648381611f2757611f26612e92565b5b0492506002810190505b600a8310611f40576001810190505b80915050919050565b611f5483838361200d565b61200857600073ffffffffffffffffffffffffffffffffffffffff168373ffffffffffffffffffffffffffffffffffffffff1603611fc957806040517f7e273289000000000000000000000000000000000000000000000000000000008152600401611fc09190612463565b60405180910390fd5b81816040517f177e802f000000000000000000000000000000000000000000000000000000008152600401611fff929190612a79565b60405180910390fd5b505050565b60008073ffffffffffffffffffffffffffffffffffffffff168373ffffffffffffffffffffffffffffffffffffffff16141580156120c557508273ffffffffffffffffffffffffffffffffffffffff168473ffffffffffffffffffffffffffffffffffffffff16148061208657506120858484610c22565b5b806120c457508273ffffffffffffffffffffffffffffffffffffffff166120ac83610ea6565b73ffffffffffffffffffffffffffffffffffffffff16145b5b90509392505050565b6000604051905090565b600080fd5b600080fd5b60007fffffffff0000000000000000000000000000000000000000000000000000000082169050919050565b612117816120e2565b811461212257600080fd5b50565b6000813590506121348161210e565b92915050565b6000602082840312156121505761214f6120d8565b5b600061215e84828501612125565b91505092915050565b60008115159050919050565b61217c81612167565b82525050565b60006020820190506121976000830184612173565b92915050565b600081519050919050565b600082825260208201905092915050565b60005b838110156121d75780820151818401526020810190506121bc565b60008484015250505050565b6000601f19601f8301169050919050565b60006121ff8261219d565b61220981856121a8565b93506122198185602086016121b9565b612222816121e3565b840191505092915050565b6000602082019050818103600083015261224781846121f4565b905092915050565b6000819050919050565b6122628161224f565b811461226d57600080fd5b50565b60008135905061227f81612259565b92915050565b60006020828403121561229b5761229a6120d8565b5b60006122a984828501612270565b91505092915050565b600073ffffffffffffffffffffffffffffffffffffffff82169050919050565b60006122dd826122b2565b9050919050565b6122ed816122d2565b82525050565b600060208201905061230860008301846122e4565b92915050565b612317816122d2565b811461232257600080fd5b50565b6000813590506123348161230e565b92915050565b60008060408385031215612351576123506120d8565b5b600061235f85828601612325565b925050602061237085828601612270565b9150509250929050565b600060ff82169050919050565b6123908161237a565b811461239b57600080fd5b50565b6000813590506123ad81612387565b92915050565b600061ffff82169050919050565b6123ca816123b3565b81146123d557600080fd5b50565b6000813590506123e7816123c1565b92915050565b60008060008060808587031215612407576124066120d8565b5b600061241587828801612325565b94505060206124268782880161239e565b93505060406124378782880161239e565b9250506060612448878288016123d8565b91505092959194509250565b61245d8161224f565b82525050565b60006020820190506124786000830184612454565b92915050565b6124878161237a565b82525050565b612496816123b3565b82525050565b600063ffffffff82169050919050565b6124b58161249c565b82525050565b60006080820190506124d0600083018761247e565b6124dd602083018661247e565b6124ea604083018561248d565b6124f760608301846124ac565b95945050505050565b600080600060608486031215612519576125186120d8565b5b600061252786828701612325565b935050602061253886828701612325565b925050604061254986828701612270565b9150509250925092565b600080fd5b600080fd5b7f4e487b7100000000000000000000000000000000000000000000000000000000600052604160045260246000fd5b612595826121e3565b810181811067ffffffffffffffff821117156125b4576125b361255d565b5b80604052505050565b60006125c76120ce565b90506125d3828261258c565b919050565b600067ffffffffffffffff8211156125f3576125f261255d565b5b6125fc826121e3565b9050602081019050919050565b82818337600083830152505050565b600061262b612626846125d8565b6125bd565b90508281526020810184848401111561264757612646612558565b5b612652848285612609565b509392505050565b600082601f83011261266f5761266e612553565b5b813561267f848260208601612618565b91505092915050565b60006020828403121561269e5761269d6120d8565b5b600082013567ffffffffffffffff8111156126bc576126bb6120dd565b5b6126c88482850161265a565b91505092915050565b6000602082840312156126e7576126e66120d8565b5b60006126f584828501612325565b91505092915050565b61270781612167565b811461271257600080fd5b50565b600081359050612724816126fe565b92915050565b60008060408385031215612741576127406120d8565b5b600061274f85828601612325565b925050602061276085828601612715565b9150509250929050565b600067ffffffffffffffff8211156127855761278461255d565b5b61278e826121e3565b9050602081019050919050565b60006127ae6127a98461276a565b6125bd565b9050828152602081018484840111156127ca576127c9612558565b5b6127d5848285612609565b509392505050565b600082601f8301126127f2576127f1612553565b5b813561280284826020860161279b565b91505092915050565b60008060008060808587031215612825576128246120d8565b5b600061283387828801612325565b945050602061284487828801612325565b935050604061285587828801612270565b925050606085013567ffffffffffffffff811115612876576128756120dd565b5b612882878288016127dd565b91505092959194509250565b600080604083850312156128a5576128a46120d8565b5b60006128b385828601612325565b92505060206128c485828601612325565b9150509250929050565b7f4e487b7100000000000000000000000000000000000000000000000000000000600052602260045260246000fd5b6000600282049050600182168061291557607f821691505b602082108103612928576129276128ce565b5b50919050565b7f4e487b7100000000000000000000000000000000000000000000000000000000600052601160045260246000fd5b60006129688261224f565b91507fffffffffffffffffffffffffffffffffffffffffffffffffffffffffffffffff820361299a5761299961292e565b5b600182019050919050565b6129ae8161237a565b82525050565b6129bd816123b3565b82525050565b6129cc8161249c565b82525050565b6080820160008201516129e860008501826129a5565b5060208201516129fb60208501826129a5565b506040820151612a0e60408501826129b4565b506060820151612a2160608501826129c3565b50505050565b6000608082019050612a3c60008301846129d2565b92915050565b6000606082019050612a5760008301866122e4565b612a646020830185612454565b612a7160408301846122e4565b949350505050565b6000604082019050612a8e60008301856122e4565b612a9b6020830184612454565b9392505050565b7f4e487b7100000000000000000000000000000000000000000000000000000000600052603260045260246000fd5b60008190508160005260206000209050919050565b60006020601f8301049050919050565b600082821b905092915050565b600060088302612b337fffffffffffffffffffffffffffffffffffffffffffffffffffffffffffffffff82612af6565b612b3d8683612af6565b95508019841693508086168417925050509392505050565b6000819050919050565b6000612b7a612b75612b708461224f565b612b55565b61224f565b9050919050565b6000819050919050565b612b9483612b5f565b612ba8612ba082612b81565b848454612b03565b825550505050565b600090565b612bbd612bb0565b612bc8818484612b8b565b505050565b5b81811015612bec57612be1600082612bb5565b600181019050612bce565b5050565b601f821115612c3157612c0281612ad1565b612c0b84612ae6565b81016020851015612c1a578190505b612c2e612c2685612ae6565b830182612bcd565b50505b505050565b600082821c905092915050565b6000612c5460001984600802612c36565b1980831691505092915050565b6000612c6d8383612c43565b9150826002028217905092915050565b612c868261219d565b67ffffffffffffffff811115612c9f57612c9e61255d565b5b612ca982546128fd565b612cb4828285612bf0565b600060209050601f831160018114612ce75760008415612cd5578287015190505b612cdf8582612c61565b865550612d47565b601f198416612cf586612ad1565b60005b82811015612d1d57848901518255600182019150602085019450602081019050612cf8565b86831015612d3a5784890151612d36601f891682612c43565b8355505b6001600288020188555050505b505050505050565b600081905092915050565b6000612d658261219d565b612d6f8185612d4f565b9350612d7f8185602086016121b9565b80840191505092915050565b6000612d978285612d5a565b9150612da38284612d5a565b91508190509392505050565b600081519050919050565b600082825260208201905092915050565b6000612dd682612daf565b612de08185612dba565b9350612df08185602086016121b9565b612df9816121e3565b840191505092915050565b6000608082019050612e1960008301876122e4565b612e2660208301866122e4565b612e336040830185612454565b8181036060830152612e458184612dcb565b905095945050505050565b600081519050612e5f8161210e565b92915050565b600060208284031215612e7b57612e7a6120d8565b5b6000612e8984828501612e50565b91505092915050565b7f4e487b7100000000000000000000000000000000000000000000000000000000600052601260045260246000fd5b6000612ecc8261224f565b9150612ed78361224f565b9250828203905081811115612eef57612eee61292e565b5b92915050565b7f4e487b7100000000000000000000000000000000000000000000000000000000600052603160045260246000fdfea2646970667358221220b004ec0eb0df69964eaad7368c3f7235df2bff2b2ae711d8c2b9e264dddc7a9e64736f6c63430008140033",
  "linkReferences": {},
  "deployedLinkReferences": {}
}