{
  "_format": "hh-sol-artifact-1",
  "contractName": "GameLogic",
  "sourceName": "contracts/GameLogic.sol",
  "abi": [
    {
      "inputs": [
        {
          "internalType": "bytes[]",
          "name": "actions",
          "type": "bytes[]"
        }
      ],
      "name": "processBatchActions",
      "outputs": [],
      "stateMutability": "nonpayable",
      "type": "function"
    }
  ],
  "bytecode": "0x608060405234801561001057600080fd5b5061048a806100206000396000f3fe608060405234801561001057600080fd5b506004361061002b5760003560e01c80633cf6e5c314610030575b600080fd5b61004a6004803603810190610045919061022d565b61004c565b005b60005b828290508110156101aa57600083838381811061006f5761006e61027a565b5b905060200281019061008191906102b8565b8080601f016020809104026020016040519081016040528093929190818152602001838380828437600081840152601f19601f8201169050808301925050505050505090506000816000815181106100dc576100db61027a565b5b602001015160f81c60f81b60f81c905060008160ff1603610125576000808380602001905181019061010e919061038a565b925092505061011e3383836101af565b5050610195565b60018160ff160361015e5760008083806020019051810190610147919061038a565b92509250506101573383836101b4565b5050610194565b60028160ff16036101935760008083806020019051810190610180919061038a565b92509250506101903383836101b9565b50505b5b5b505080806101a29061040c565b91505061004f565b505050565b505050565b505050565b505050565b600080fd5b600080fd5b600080fd5b600080fd5b600080fd5b60008083601f8401126101ed576101ec6101c8565b5b8235905067ffffffffffffffff81111561020a576102096101cd565b5b602083019150836020820283011115610226576102256101d2565b5b9250929050565b60008060208385031215610244576102436101be565b5b600083013567ffffffffffffffff811115610262576102616101c3565b5b61026e858286016101d7565b92509250509250929050565b7f4e487b7100000000000000000000000000000000000000000000000000000000600052603260045260246000fd5b600080fd5b600080fd5b600080fd5b600080833560016020038436030381126102d5576102d46102a9565b5b80840192508235915067ffffffffffffffff8211156102f7576102f66102ae565b5b602083019250600182023603831315610313576103126102b3565b5b509250929050565b600060ff82169050919050565b6103318161031b565b811461033c57600080fd5b50565b60008151905061034e81610328565b92915050565b6000819050919050565b61036781610354565b811461037257600080fd5b50565b6000815190506103848161035e565b92915050565b6000806000606084860312156103a3576103a26101be565b5b60006103b18682870161033f565b93505060206103c286828701610375565b92505060406103d386828701610375565b9150509250925092565b7f4e487b7100000000000000000000000000000000000000000000000000000000600052601160045260246000fd5b600061041782610354565b91507fffffffffffffffffffffffffffffffffffffffffffffffffffffffffffffffff8203610449576104486103dd565b5b60018201905091905056fea2646970667358221220c3ab218fa143f6f130de2d9955eb48cae658c880cadc56753d0da9ce62ecebf264736f6c63430008140033",
  "linkReferences": {},
  "deployedLinkReferences": {}
}